:0600000002106302006B18
:03000B0002006B85
:0300130002006B7D
:03001B0002006B75
:0300230002006B6D
:03002B0002006B65
:0300330002006B5D
:03003B0002006B55
:0300430002006B4D
:03004B0002006B45
:0300530002006B3D
:03005B0002006B35
:0300630002006B2D
:01006B003262
:2000800002006B0002006B0002006B0002006B0002006B0002006B0002006B0002006B00F8
:1800A00002006B0002006B0002006B0002006B0002006B0002006B00BA
:2001000002006B0002006B0002006B0002006B0002006B0002006B0002006B0002006B0077
:2001200002006B0002006B0002006B0002006B0002006B0002006B0002006B0002006B0057
:2001400002006B0002006B0002006B0002006B0002006B0002006B0002006B0002006B0037
:2001600002006B0002006B0002006B0002006B0002006B0002006B0002006B0002006B0017
:0310790002107FE3
:0B106300E4F50AF50BF50CF50DF50E99
:0310920002107CCD
:03107C00020180EE
:2001800075B50C1209921209411206111205D6C2AF120F8D120B30D2EAD2AF120A3D43B015
:2001A0000802059E90E68BE4F090E6A0E0FF20E1F82290E6B8E0FFBFC002800302032D90DA
:2001C000E6B9E0FFBF80028017BF90028052BFA202806ABFA3028065BFA902805A0203299E
:2001E00090E6BCE0FF601CBF013290E6C1E0235401FF90E740F090E68AE4F090E68B04F082
:2002000002058790E6C1E0235401FF90E740F090E68AE4F090E68B04F002058775820022AB
:200220001206A5AF8290E740EFF090E68AE4F090E68B04F002058775080143090190E6BAE8
:20024000E0FF8F0F75100090E6BBE0FCE4420FEC421090E6BEE0FD8D1175120090E6BFE0D1
:20026000FAE4FB4211EA4212E5114512700302058790E6A0E0FB20E1F8C3E5119440E51258
:2002800094005006AA11AB1280047A407B0090E6B9E0F9B9A337E4F513F514C3E5139AE579
:2002A000149B5063E5132440FCE51434E7FDA80FA910E51328F582E51439F583E0F98C82DB
:2002C0008D83F00513E4B513D2051480CE7C007D00C3EC9AED9B5014EC2440F582ED34E724
:2002E000F58374CDF00CBC00E80D80E58A1B7C407DE78C1C8D1D850F82851083C003C00269
:2003000012077BD002D00390E68AE4F090E68BEAF0EA250FF50FEB3510F510E511C39AF556
:2003200011E5129BF5120202687582002290E6B8E0FDBD4002800302058390E6B9E0FDBDAE
:2003400001028021BD1003020407BD2003020419BDA203020439BDA303020439BDA903026F
:20036000043302057F90E6BAE0606B90E6C67480F090E6C774EDF090E6C8E4F090E6C9F0F6
:2003800090E6CAF090E6CBF090E6CC7403F090E6CD14F090E60CE4F00090E6F574FFF000E8
:2003A00075BB000090E6C774EDF00090E6047480F00090E6047402F00090E6047406F0005D
:2003C00090E604E4F00075BB0600750CE9750D0F43B00402058775BB000090E6F574FFF01B
:2003E0000090E6047480F00090E6047402F00090E6047406F00090E604E4F000E4F50CF5B3
:200400000D53B0FB02058790E6BAE0600612062402058712062B02058790E68AE4F090E6E8
:200420008BF090E6A0E0FD20E1F890E74012065202058775080143090190E6BAE0FD8D0F32
:2004400075100090E6BBE0FCE4420FEC421090E6BEE0FD8D1175120090E6BFE0FDE4FC422D
:2004600011ED4212E50E70061208A885820EE5114512700302058790E68AE4F090E68BF0D7
:2004800090E6A0E0FD20E1F890E68BE0FA7B0090E6B9E0FDBDA33AE4F513F514C3E5139A2A
:2004A000E5149B4003020567A80FA910E51328F8E51439F9E5132440F582E51434E7F583E5
:2004C000E0FD88828983F00513E4B513CF051480CB7C007D00C3EC9AED9B40030205678542
:2004E0000E157401B50E028047EC250FF8ED3510F9AE0E7F001EBEFF011FEE5200EF5201DD
:20050000E8496011AE0F8C07EF2EFEE50E145ED3950EF4F515EAC39CFEEB9DFFA8157900F1
:20052000C3EE98EF9950098A078C06EFC39EF515EC250FF582ED3510F583EC2440F518ED89
:2005400034E7F51985151AC005C004C003C0021206B0D002D003D004D005A9157F00E92C48
:20056000FCEF3DFD0204D5EA250FF50FEB3510F510E511C39AF511E5129BF51202046E7549
:200580008200227582002275820122C0E0E50C450D6006750A01750B00C2CFD0E03290E652
:2005A000C67480F090E6C774EDF090E6C8E4F090E6C9F090E6CAF090E6CBF090E6CC7403A8
:2005C000F090E6CD14F090E60CE4F0003000FD120BC4C20080F6750E0090E678E05410C4CF
:0F05E000540FFF74504FF50974015509F50822A7
:20E0000012010002FFFFFF4081173C0B0201010206010A060002FFFFFF4001000902320035
:20E02000030100C0000904000000FFFFFF030904010001FFFFFF04070502020002000904E0
:20E04000020001FFFFFF050705860200020012010002FFFFFF4081173C0B020101020001ED
:20E060000A060002FFFFFF40010009021200010100C0000904000000FFFFFF03078CE0925F
:0BE08000E0AEE0DAE0FCE018E132E185
:20E08C000603000009041C0347004E004D00410058002000500072006F006A006500630041
:20E0AC0074002C034D00410058003200370036003900200047004E00530053002000460032
:20E0CC0072006F006E00740065006E006400220343006F006D006D0061006E006400200036
:20E0EC00260020005300740061007400750073001C035400720061006E0073006D0069004D
:20E10C007400200050006100740068001A0352006500630065006900760065002000500082
:12E12C006100740068000C0330003000300030003000A5
:2005EF007880E84400600C7901901800E4F0A3D8FCD9FAD083D082F6D8FDC082C083758230
:02060F000022C7
:05106E00E4F516F51782
:2006110043B28D43808500438008005380F70075820022438001758200225380FE758200AC
:2006310022AF827E80EE5F6005438080800353807F00438008005380F700EEC313FE70E5E2
:2006510022AE82AF835380F7005380FB00007C007D00EC2EF582ED3FF583E0F582C007C061
:2006710006C005C004120632D004D005D006D0070CBC00010DC3EC9404ED6480948040D226
:1F0691004380040000438080438008005380F7007582002285B08222851682851783225B
:2006B000AE82AF83C007C00612077212074512088BE582D006D00760047D018072E5086078
:2006D0001A8F0490E679ECF0C007C00612088BE582D006D00760047D01805490E679EEF0C9
:2006F00012088BE58260047D018044AE18AF197C00C3EC951A502A8E828F83E0FBA3AE8286
:20071000AF8390E679EBF0C007C006C004120876E582D004D006D00760047D0180110C8005
:20073000D090E678E0FF74404FF01207547D0053B27F8D822290E6787480F0E509250990FC
:20075000E679F02212077212074512087690E678E0FF74404FF012077290E678E0FF30E176
:20077000E62290E678E0FF20E6F822AE82AF83C007C00612077212074512088BE582D006BA
:20079000D007600475820122E508601A8F0590E679EDF0C007C00612088BE582D006D007E7
:2007B00060047582012290E679EEF012088BE58260047582012290E6787480F0E509250966
:2007D000FF90E67974014FF0120876E58260047582012290E679E0120876E58260047582D1
:2007F00001227F007E00AC1B7D001CBCFF011D8E027B00C3EA9CEB64808DF063F08095F098
:200810005025EE251CFCE4351DFD90E679E08C828D83F0C006120876E582D006600475822A
:2008300001220E8E0780BF90E6787420F0C007120876E582D007600475820122EF251CFFEF
:20085000E4351DFE90E679E08F828E83F0120876E58260047582012290E6787440F090E6F6
:2008700079E07582002290E678E0FFFE30E0F7EE30E204758201227582002290E678E0FF20
:20089000FE30E0F7EE30E20475820122EE20E1047582012275820022E50870047582012284
:2008B000751C40751D18751B4090000012077B7F00EF2400F582E43418F583EFF00FBF401B
:2008D0000040EE751800751918751A409000001206B07F00EF2400F582E43418F583EFF4EC
:2008F000FEF00FBF400040EC751B40751C00751D1890000012077B901800E0FF30E0047E78
:2009100001800663073F0F8F067F008F047D007518407519188E1A8C828D83C007C006128C
:1109300006B0D006D007EE2FFFBF400040DD8E8222E9
:2009410090E6F574FFF000901139E49390E6F3F090113AE49390E6C3F090113BE49390E6DA
:20096100C1F090113CE49390E6C2F090113EE49390E6C0F07F008F057EE4EF90109593FCA5
:110981008D828E83F00FBF800040EB90E6C6E4F022AA
:20109500010101010101010700000000000000000000000000000000000000000000003FEE
:2010B500010101010101010700000000000000000000000000000000000000000000003FCE
:2010D500380101010101010703020202020202000000000000000000360000000000003F32
:2010F500380101010101010703020202020202000000000000000000360000000000003F12
:2011150000000000000000000000000000000000000080ED0000000003020080EE000000DA
:0B11350000030200A0000000AE4E000E
:2009920090E6007410F0758E0090E6017402F00090E61074A0F00090E61174E0F00090E6B0
:2009B20012E4F00090E613E4F00090E61474E0F00090E615E4F00090E6047480F00090E6E1
:2009D200047406F00090E604E4F00090E618E4F090E619F090E61A740CF090E61BE4F00003
:2009F20090E68AE4F00090E68DE4F00090E6E27402F00090E6E37401F00090E6247402F0BE
:080A12000090E625E4F000224B
:200A1A0090E6A0E0FF74014FF022AF8274805FC423541FFE740F5F90E6834EF0E0FF742089
:200A3A004FF02290E680E0FF740A4FF09000FA12104B90E65D74FFF090E65FF05391EF9054
:090A5A00E680E0FF74F75FF02272
:06108C00E478FFF6D8FD38
:0610730075220075230048
:200A630090E680E0FF30E7197524007525E07526127527E075281C7529E0752A6A752BE072
:200A83002275244E7525E07526607527E075286A7529E0752A1C752BE0225391EF75A1008E
:200AA300D20032C021C0E0C0F0C082C083C007C006C005C004C003C002C001C000C0D07558
:200AC300D0005391EF75A100120A63D0D0D000D001D002D003D004D005D006D007D083D07C
:200AE30082D0F0D0E0D02132C021C0E0C0F0C082C083C007C006C005C004C003C002C001CC
:200B0300C000C0D075D0005391EF75A100120A63D0D0D000D001D002D003D004D005D00670
:200B2300D007D083D082D0F0D0E0D02132120A63751E9D751F0A758200120EE8751EA675A9
:200B43001F0A758210120EE8751EEB751F0A758214120EE890E65C7431F022E582547FFF69
:200B630024F7500475820022BF010475820122530701E4BF000104F58222AF82BF010C90E3
:200B8300E6A1E0FE7D008E828D8322BF810C90E6A2E0FE7D008E828D832253077FEF700CE9
:200BA30090E6A0E0FE7D008E828D832290E6A3E0FE7D00EFC3137C002EFEEC3D8E82F583ED
:200BC30022C20090E6B8E0FF5307608F06BE00028028BF2002800DBF4002800EBF600280CC
:200BE30003020E7C120A1A020E7C1201B2E5826003020E7C120A1A020E7C90E6B8E0FF5364
:200C03000780BF80028003020D8090E6B9E0FFBF0003020CFCBF06028033BF08028008BF93
:200C23000A028016020D7A90E740E522F090E68AE4F090E68B04F0020E7C90E740E523F0D4
:200C430090E68AE4F090E68B04F0020E7C90E6BBE0FFBF01028017BF02028038BF03028014
:200C630059BF0602801BBF0702803C020CF6AE24AF2590E6B3EFF07F0090E6B4EEF0020EE9
:200C83007CAE26AF2790E6B3EFF07F0090E6B4EEF0020E7CAE28AF2990E6B3EFF07F00904B
:200CA300E6B4EEF0020E7CAE2AAF2B90E6B3EFF07F0090E6B4EEF0020E7C90E6BAE0FF90C1
:200CC300E07CE0FEC3EF9E4006120A1A020E7C90E6BAE075F002A4247DF58274E035F0F5DE
:200CE30083E0FEA3E090E6B3F07F0090E6B4EEF0020E7C120A1A020E7C90E6B8E0FF5307B8
:200D03001F8F06BE0002800ABE0102801CBF0264802C90E7407401F090E741E4F090E68AFC
:200D2300F090E68B7402F0804E90E740E4F090E741F090E68AF090E68B7402F0803990E6D2
:200D4300BCE0F582120B5EE582602490E6BCE0F582120B7DE0FF53070190E740EFF090E7AD
:200D630041E4F090E68AF090E68B7402F08008120A1A8003120A1A120A1A020E7C90E6B99C
:200D8300E0FF24F45003020E79EF240A83F582EF241083F583E47379C441227979797979F4
:200DA300B279BB0E0D0E0E0E0E0E0E0E0D0E0D90E6BAE0F522020E7C90E6BAE0F523020EBA
:200DC3007C90E6B8E0FF53071F8F06BE00028005BF0247800A90E6BAE0120A1A020E7C9040
:200DE300E6BAE0703090E6BCE0F582120B5EE582602390E6BCE0F582120B7DAE82AF83E07D
:200E0300FD5305FE8E828F83EDF090E6BCE0F582120A248064120A1A805F120A1A805A901B
:200E2300E6B8E0FF53071FBF004F90E6BAE0FFBF01028005BF02028040120A1A803B90E66B
:200E4300BAE0FF702C90E6BCE0F582120B5EE582601A90E6BCE0F582120B7DAE82AF83E010
:200E6300FD4305018E828F83EDF0800D120A1A8008120A1A8003120A1A90E6A0E0FF748007
:030E83004FF0220B
:200E8600AF82BF03004005EF249C500122740F5FFEBE03028007740F5FFEBE0B44A2AF92F8
:200EA60002C2AFEF2400F582E43400F5837402F07E00142FFCE43EFDEC2400F582ED3400B5
:200EC600F583E51FFDF074022FFFE43EFEEF2400F582EE3400F583AE1E7F00EEF0A202925C
:200EE600AF22E582FF2483500122EF5403600122A2AF9203C2AFEF2400F582E43401F58360
:200F06007402F07E00142FFCE43EFDEC2400F582ED3401F583E51FF074022FFFE43EFEEFC1
:200F26002400F582EE3401F583AE1EEEF0A20392AF22AF82BF80004005EF244B500122EF4E
:200F46005403600122A2AF9204C2AFEF2480F582E43400F5837402F07E00142FFCE43EFD7D
:200F6600EC2480F582ED3400F583E51FF074022FFFE43EFEEF2480F582EE3400F583AE1EA3
:200F8600EEF0A20492AF22C2E8C2EA751E00751F01758243120E86751E80751F0075825315
:200FA600120E860090E650E4F00090E652E4F00090E654E4F00090E656E4F00090E65174D6
:200FC600FFF00090E65374FFF00090E65574FFF00090E65774FFF00090E658E4F090E65921
:200FE60014F090E65AE4F090E65B14F090E65CE4F090E65D14F090E65EE4F090E65F14F070
:201006000090E660E4F00090E66174FFF090E662E4F090E66314F090E665E4F090E668745C
:0D1026000BF05391EF5391BFD2E8D2EA22B4
:2010330022AF82121033EF14FEFF70F72290FB50A3E582458370F922AE82AF83121040EE82
:1010530024FFFCEF34FFFD8C068D07EC4D70ED2271
:0D107F0075812B1205EFE582600302107CE5
:00000001FF
