:0600000002109402006BE7
:03000B0002006B85
:0300130002006B7D
:03001B0002006B75
:0300230002006B6D
:03002B0002006B65
:0300330002006B5D
:03003B0002006B55
:0300430002006B4D
:03004B0002006B45
:0300530002006B3D
:03005B0002006B35
:0300630002006B2D
:01006B003262
:2000800002006B0002006B0002006B0002006B0002006B0002006B0002006B0002006B00F8
:1800A00002006B0002006B0002006B0002006B0002006B0002006B00BA
:2001000002006B0002006B0002006B0002006B0002006B0002006B0002006B0002006B0077
:2001200002006B0002006B0002006B0002006B0002006B0002006B0002006B0002006B0057
:2001400002006B0002006B0002006B0002006B0002006B0002006B0002006B0002006B0037
:2001600002006B0002006B0002006B0002006B0002006B0002006B0002006B0002006B0017
:0310AA000210B081
:0B109400E4F50AF50BF50CF50DF50E68
:0310C3000210AD6B
:0310AD00020180BD
:2001800075B50C1206431209B71209671205FAC2AF120FC9120B62D2EAD2AF120A7243B0D1
:2001A000080205C290E68BE4F090E6A0E020E1F92290E6B8E0FFBFC002800302033590E6C6
:2001C000B9E0FFBF80028017BF90028052BFA202806ABFA3028065BFA902805A02033190EC
:2001E000E6BCE0FF601CBF013290E6C1E0235401FF90E740F090E68AE4F090E68B04F00210
:2002000005AB90E6C1E0235401FF90E740F090E68AE4F090E68B04F00205AB758200221253
:2002200006D7AF8290E740EFF090E68AE4F090E68B04F00205AB75080143090190E6BAE0C4
:20024000FF7E0090E6BBE0FC7D00EF4205EE420490E6BEE0FF7E0090E6BFE0FA7B00EF42E1
:2002600003EE4202EB4A70030205AB90E6A0E020E1F98B068A07C3EE9440EF940050068BF4
:20028000068A0780047E407F0090E6B9E0F9B9A33EE4F511F512C3E5119EE5129F5078C0FE
:2002A00003C002E5112440F8E51234E7F98D028C03E5112AF582E5123BF583E088828983C7
:2002C000F00511E4B511020512D002D00380C778007900C3E89EE99F5014E82440F582E997
:2002E00034E7F58374CDF008B800E80980E58E19784079E7881A891B8D828C83C007C00674
:20030000C005C004C003C0021207A7D002D003D004D005D006D00790E68AE4F090E68BEE51
:20032000F0EE2DFDEF3CFCEBC39EFBEA9FFA0202647582002290E6B8E0FFBF4002800302B0
:2003400005A790E6B9E0FFBF01028021BF100302040FBF2003020421BFA203020440BFA384
:2003600003020440BFA90302043A0205A390E6BAE0606B90E6C67480F090E6C774EDF090C6
:20038000E6C8E4F090E6C9F090E6CAF090E6CBF090E6CC7403F090E6CD14F090E60CE4F005
:2003A0000090E6F574FFF00075BB000090E6C774EDF00090E6047480F00090E6047402F073
:2003C0000090E6047406F00090E604E4F00075BB0600750CE9750D0F43B0040205AB75BBE1
:2003E000000090E6F574FFF00090E6047480F00090E6047402F00090E6047406F00090E697
:2004000004E4F000E4F50CF50D53B0FB0205AB90E6BAE060061206560205AB12065D02055B
:20042000AB90E68AE4F090E68BF090E6A0E020E1F990E7401206840205AB7508014309018C
:2004400090E6BAE0FF7E0090E6BBE0FC7D00EF4205EE420490E6BEE0FF7E0090E6BFE0FA7B
:200460007B00EF4203EE4202E50E7016C005C004C003C0021208D085820ED002D003D0049C
:20048000D005EB4A70030205AB90E68AE4F090E68BF090E6A0E020E1F990E68BE0FF8F0FFA
:2004A00075100090E6B9E0F9B9A33CE4F511F512C3E511950FE5129510400302058F8D00C7
:2004C0008C01E51128F8E51239F9E5112440F582E51234E7F583E0FF88828983F00511E416
:2004E000B511CD051280C9E4F511F512C3E511950FE5129510400302058F850E137401B576
:200500000E02804AE5112DF8E5123CF9AE0E7F001EBEFF011FE85206E95207EE4F60108DC8
:2005200007E5112FFFE50EFE145FD39EF4F513E50FC39511FEE5109512FFA8137900C3EEE4
:2005400098EF995009AE0FAF11EEC39FF513E5112DF582E5123CF583E5112440F516E512AC
:2005600034E7F517851318C005C004C003C0021206E2D002D003D004D005A9137F00AE1154
:20058000A812E92EFEEF38F88E1188120204ECE50F2DFDE5103CFCEBC3950FFBEA9510FA21
:2005A000020482758200227582002275820122C0E0E50C450D6006750A01750B00C2CFD0BD
:2005C000E03290E6C67480F090E6C774EDF090E6C8E4F090E6C9F090E6CAF090E6CBF09029
:2005E000E6CC7403F090E6CD14F090E60CE4F0003000FD120BFBC20080F6750E0090E67857
:20060000E0FF530710E4C4CFC4540F6FCF540FCF6FCF30E30244F074504FF5095401F50899
:0106200022B7
:20E0000012010002FFFFFF4081173C0B0201030201010A060002FFFFFF4001000902320038
:20E0200003010080280904000000FFFFFF040904010001FFFFFF05070502020002000904F6
:20E04000020001FFFFFF060705860200020012010002FFFFFF4081173C0B020103020001EA
:20E060000A060002FFFFFF4001000902120001010080280904000000FFFFFF04078CE09276
:0BE08000E0A0E0CCE0E8E00AE126E1CF
:20E08C000603000009040E033000300030003000300030002C034D004100580032003700AF
:20E0AC0036003900200047004E00530053002000460072006F006E00740065006E0064002A
:20E0CC001C0347004E004D00410058002000500072006F006A00650063007400220343003B
:20E0EC006F006D006D0061006E0064002000260020005300740061007400750073001C038F
:20E10C005400720061006E0073006D0069007400200050006100740068001A035200650020
:14E12C00630065006900760065002000500061007400680026
:200621007880E84400600C7901901800E4F0A3D8FCD9FAD083D082F6D8FDC082C0837582FD
:02064100002295
:05109F00E4F514F51555
:2006430043B28D43808500438008005380F70075820022438001758200225380FE7582007A
:2006630022AF827E80EE5F6005438080800353807F00438008005380F700EEC313FE70E5B0
:2006830022AE82AF835380F7005380FB00007C007D00EC2EF582ED3FF583E0F582C007C02F
:2006A30006C005C004120664D004D005D006D0070CBC00010DC3EC9404ED6480948040D2C2
:1F06C3004380040000438080438008005380F7007582002285B08222851482851583222D
:2006E200AE82AF83C007C00612079F1207741208B4E582D006D00760047D01806FE50860C4
:200702001890E679EFF0C007C0061208B4E582D006D00760047D01805390E679EEF01208E6
:20072200B4E58260047D018043AE16AF177C00C3EC9518502A8E828F83E0FBA3AE82AF8319
:2007420090E679EBF0C007C006C0041208A0E582D004D006D00760047D0180100C80D0907C
:20076200E678E043E040F01207837D0053B27F8D822290E6787480F0E50925E090E679F074
:200782002212079F1207741208A090E678E043E040F012079F90E678E030E1E82290E67886
:2007A200E020E6F922AE82AF83C007C00612079F1207741208B4E582D006D00760047582C5
:2007C2000122E508601890E679EFF0C007C0061208B4E582D006D00760047582012290E65E
:2007E20079EEF01208B4E58260047582012290E6787480F0E50925E0FF90E67974014FF086
:200802001208A0E58260047582012290E679E01208A0E5826004758201227F007E00AC1907
:200822007D001CBCFF011D8E027B00C3EA9CEB64808DF063F08095F05025EE251AFCE43595
:200842001BFD90E679E08C828D83F0C0061208A0E582D0066004758201220E8E0780BF90F4
:20086200E6787420F0C0071208A0E582D007600475820122EF251AFFE4351BFE90E679E029
:200882008F828E83F01208A0E58260047582012290E6787440F090E679E07582002290E6B5
:2008A20078E0FE30E0F8EE30E204758201227582002290E678E0FE30E0F8EE30E2047582D2
:2008C2000122EE20E1047582012275820022E508700475820122751A40751B18751940907D
:2008E20000001207A77F00EF2400F582E43418F583EFF00FBF400040EE75160075171875C6
:2009020018409000001206E27F00EF2400F582E43418F583EFF4F00FBF400040ED75194066
:20092200751A00751B189000001207A7901800E0FF30E0047E018005743F6F04FE7F008F5D
:20094200047D007516407517188E188C828D83C007C0061206E2D006D007EE2FFFBF400092
:0509620040DD8E822241
:2009670090E6F574FFF00090116AE49390E6F3F090116BE49390E6C3F090116CE49390E621
:20098700C1F090116DE49390E6C2F090116FE49390E6C0F07F008F057EE4EF9010C6938D5B
:1009A700828E83F00FBF800040EC90E6C6E4F02211
:2010C600010101010101010700000000000000000000000000000000000000000000003FBD
:2010E600010101010101010700000000000000000000000000000000000000000000003F9D
:20110600380101010101010703020202020202000000000000000000360000000000003F00
:20112600380101010101010703020202020202000000000000000000360000000000003FE0
:2011460000000000000000000000000000000000000080ED0000000003020080EE000000A9
:0B11660000030200A0000000AE4E00DD
:2009B70090E6007410F0758E0090E6017402F00090E61074A0F00090E61174E0F00090E68B
:2009D70012E4F00090E613E4F00090E61474E0F00090E615E4F00090E6047480F00090E6BC
:2009F700047406F00090E604E4F00090E618E4F090E619F090E61A740CF090E61BE4F000DE
:200A170090E68AE4F00090E68DE4F00090E6E27402F00090E6E37401F00090E6247402F098
:080A37000090E625E4F0002226
:200A3F0090E6A0E043E001F022AF828F05530580E4C423CDC423541F6DCD541FCD6DCD30F8
:200A5F00E40244E053070F90E683EF4DF0E043E020F02290E680E043E00AF09000FA12100B
:170A7F008390E65D74FFF090E65FF05391EF90E680E053E0F7F022FD
:0610BD00E478FFF6D8FD07
:0610A40075220075230017
:200A960090E680E030E7197524007525E07526127527E075281C7529E0752A6A752BE0221C
:200AB60075244E7525E07526607527E075286A7529E0752A1C752BE0225391EF75A100D2AB
:200AD6000032C021C0E0C0F0C082C083C007C006C005C004C003C002C001C000C0D075D027
:200AF600005391EF75A100120A96D0D0D000D001D002D003D004D005D006D007D083D08264
:200B1600D0F0D0E0D02132C021C0E0C0F0C082C083C007C006C005C004C003C002C001C05A
:200B360000C0D075D0005391EF75A100120A96D0D0D000D001D002D003D004D005D006D0FA
:200B560007D083D082D0F0D0E0D02132120A96751CCF751D0A758200120F26751CD8751D59
:200B76000A758210120F26751C1D751D0B758214120F2690E65C7431F022E582547FFF2484
:200B9600F7500475820022BF0104758201225307017E00E4BF0004BE000104F58222AF82F0
:200BB600BF010C90E6A1E0FE7D008E828D8322BF810C90E6A2E0FE7D008E828D8322530744
:200BD6007FEF700C90E6A0E0FE7D008E828D832290E6A3E0FE7D00EFC3137C002EFEEC3D58
:200BF6008E82F58322C20090E6B8E0FF5307608F06BE00028028BF2002800DBF4002800EB2
:200C1600BF60028003020EB2120A3F020EB21201B1E5826003020EB2120A3F020EB290E658
:200C3600B8E0FF530780BF80028003020DB790E6B9E0FFBF0003020D33BF06028033BF0850
:200C5600028008BF0A028016020DB190E740E522F090E68AE4F090E68B04F0020EB290E723
:200C760040E523F090E68AE4F090E68B04F0020EB290E6BBE0FFBF01028017BF02028036B9
:200C9600BF03028055BF0602801ABF07028039020D2DAE24AF2590E6B3EFF090E6B4E524A6
:200CB600F0020EB2AE26AF2790E6B3EFF090E6B4E526F0020EB2AE28AF2990E6B3EFF0908D
:200CD600E6B4E528F0020EB2AE2AAF2B90E6B3EFF090E6B4E52AF0020EB290E6BAE0FF9061
:200CF600E07CE0FEC3EF9E4006120A3F020EB290E6BAE075F002A4247DF58274E035F0F550
:200D160083E0FEA3E0FF8E048F0590E6B3EDF090E6B4EEF0020EB2120A3F020EB290E6B899
:200D3600E0FF53071F8F06BE0002800ABE0102801CBF0264802C90E7407401F090E741E480
:200D5600F090E68AF090E68B7402F0804E90E740E4F090E741F090E68AF090E68B7402F0DE
:200D7600803990E6BCE0F582120B90E582602490E6BCE0F582120BB4E0FF53070190E74038
:200D9600EFF090E741E4F090E68AF090E68B7402F08008120A3F8003120A3F120A3F020E4F
:200DB600B290E6B9E0FF24F45003020EAFEF240A83F582EF241083F583E473AFFB7859AF7D
:200DD600AFAFAFAFE9AFF20E0D0E0E0E0E0E0E0E0D0E0D90E6BAE0F522020EB290E6BAE019
:200DF600F523020EB290E6B8E0FF53071F8F06BE00028005BF0247800A90E6BAE0120A3FA6
:200E1600020EB290E6BAE0703090E6BCE0F582120B90E582602390E6BCE0F582120BB4AE22
:200E360082AF83E0FD5305FE8E828F83EDF090E6BCE0F582120A488063120A3F805E120A91
:200E56003F805990E6B8E0FF53071FBF004E90E6BAE0FFBF01028005BF0202803F120A3F9E
:200E7600803A90E6BAE0702C90E6BCE0F582120B90E582601A90E6BCE0F582120BB4AE8255
:200E9600AF83E0FD4305018E828F83EDF0800D120A3F8008120A3F8003120A3F90E6A0E046
:050EB60043E080F02282
:200EBB00AF82BF03004005EF249C5001228F057E00740F5DFB7C00BB0305BC0002800C74D3
:200EDB000F5DFB7C00BB0B42BC003FA2AF9202C2AFEF2400F582E43400F5837402F0142DFA
:200EFB00FCE43EFFEC2400F582EF3400F583E51DF074022DFDE43EFEED2400F582EE34003C
:200F1B00F583E51CFFF0A20292AF22E582FF2483500122EF5403600122A2AF9203C2AFEFB8
:200F3B002400F582E43401F5837402F07E00142FFCE43EFDEC2400F582ED3401F583E51D05
:200F5B00F074022FFFE43EFEEF2400F582EE3401F583E51CF0A20392AF22AF82BF800040F4
:200F7B0005EF244B500122EF5403600122A2AF9204C2AFEF2480F582E43400F5837402F05F
:200F9B007E00142FFCE43EFDEC2480F582ED3400F583E51DF074022FFFE43EFEEF2480F57C
:200FBB0082EE3400F583E51CF0A20492AF22C2E8C2EA751C00751D01758243120EBB751CE0
:200FDB0080751D00758253120EBB0090E650E4F00090E652E4F00090E654E4F00090E6561F
:200FFB00E4F00090E65174FFF00090E65374FFF00090E65574FFF00090E65774FFF00090BE
:20101B00E658E4F090E65914F090E65AE4F090E65B14F090E65CE4F090E65D14F090E65E06
:20103B00E4F090E65F14F00090E660E4F00090E66174FFF090E662E4F090E66314F090E605
:14105B0065E4F090E668740BF05391EF5391BFD2E8D2EA22ED
:20106F0022AF8212106FDFFB2290FB50A3E582458370F922AE82AF831210781EBEFF011F52
:05108F00EE4F70F42299
:0D10B00075812B120621E58260030210AD50
:00000001FF
